:1000000007C1000033C1000031C100002FC1000052
:100010002DC100002BC1000029C1000027C1000034
:1000200025C1000023C1000021C100001FC1000044
:100030001DC100001BC1000019C1000017C1000054
:1000400015C1000013C1000011C100000FC1000064
:100050000DC100000BC1000009C10000F4C2000086
:1000600005C1000014C6000048C60000FFC0000023
:10007000FDC00000FBC00000F9C00000F7C0000098
:10008000F5C00000F3C00000F1C00000EFC00000A8
:10009000EDC00000EBC00000E9C00000E7C00000B8
:1000A000E5C00000E3C00000E1C00000DFC00000C8
:1000B000DDC00000DBC00000D9C00000D7C00000D8
:1000C000D5C00000D3C00000D1C00000CFC00000E8
:1000D000CDC00000CBC00000C9C00000C7C00000F8
:1000E000C5C000002F043204210425042B04690438
:1000F00036043A044004440448044E0452045604AE
:1001000069045C046004640400000A0B02090C0D1D
:100110000E080703040100000000000000000000BA
:1001200000000000000000000000000000000000CF
:10013000000000001211100000000000000000008C
:1001400000000000000000000000000000000102AC
:1001500010202008081020401020408002010201D9
:100160000804020101020408102040808040201091
:1001700008040201800402018040201008040201EA
:100180000804020101020408102040800102040852
:10019000102040800505050507050808080802022B
:1001A00002020A0A08080404040401010101010111
:1001B00001010303030303030303040707070C0CF4
:1001C0000C0C0C0C0C0C02020202060606060606BB
:1001D00006060B0B0B0B0B0B0B0B00002200250074
:1001E00028002B002E003100340002010000050120
:1001F00008010B0100002100240027002A002D0027
:100200003000330001010000040107010A01AF06BC
:1002100011241FBECFEFD1E2DEBFCDBF00E00CBF87
:1002200012E0A0E0B2E0ECE0FFE000E00BBF02C0B3
:1002300007900D92A63BB107D9F723E0A6EBB2E0F9
:1002400001C01D92AA37B207E1F712E0C0E1D2E087
:1002500000E005C022970109FE010BBF48D6CE3051
:10026000D10780E00807B1F70FD64EC6C9CECF93AD
:10027000DF9326E040E052EC61E070E08DED92E02B
:10028000A6D468E873E180E090E04AD261E08DE0B6
:1002900021D361E08CE01ED361E08BE01BD361E0F1
:1002A0008AE018D360E08DE04ED360E08CE04BD361
:1002B00060E08BE048D360E08AE045D360E072E024
:1002C0008DED92E0D0D563E072E08DED92E0CBD57C
:1002D00064EF71E080E090E023D268E072E08DEDA1
:1002E00092E0C1D563E072E08DED92E0BCD564EFA1
:1002F00071E080E090E014D26DE072E08DED92E06C
:10030000B2D563E072E08DED92E0ADD564EF71E0BF
:1003100080E090E005D264E172E08DED92E0A3D53B
:1003200063E072E08DED92E09ED564EF71E080E0D5
:1003300090E0F6D160E272E08DED92E094D58DED23
:1003400092E036D3C091B902D091BA02892B81F0E4
:100350008DED92E046D3C154DD4F88838091B90280
:100360009091BA0201969093BA028093B902E7CFB6
:10037000C154DD4F18826FEB72E08DED92E073D5C2
:1003800063E072E08DED92E06ED564EF71E080E0A5
:1003900090E0C6D169E272E08DED92E064D563E051
:1003A00072E08DED92E05FD564EF71E080E090E067
:1003B000B7D165E372E08DED92E055D563E072E070
:1003C0008DED92E050D564EF71E080E090E0A8D12F
:1003D00068E873E180E090E0A3D167E472E08DED1E
:1003E00092E041D563E072E08DED92E03CD564EFA0
:1003F00071E080E090E094D167E572E08DED92E0ED
:10040000DF91CF9130C50F931F93CF93DF9364E6B5
:1004100070E080E090E084D18DED92E0C9D2892B2C
:1004200041F48091BB029091BC02019709F006C192
:1004300033C08DED92E0D5D28093D302843289F718
:100440001092BE021092BD02C1E0D0E08091BD02C8
:100450009091BE0203972CF78DED92E0A9D2892BE3
:10046000A9F30091BD021091BE028DED92E0B9D2C8
:10047000F801EA54FD4F80838091BD029091BE0245
:1004800001969093BE028093BD020397F9F6D09334
:10049000BC02C093BB02DACF1092B9026DE672E0E3
:1004A00086EB92E028D5892B61F461E08DE04BD298
:1004B00064EF71E080E090E033D11092BC021092C2
:1004C000BB0261E772E086EB92E015D5892B61F4FF
:1004D00060E08DE038D264EF71E080E090E020D100
:1004E0001092BC021092BB0265E772E086EB92E0CC
:1004F00002D5892B61F461E08CE025D264EF71E0D4
:1005000080E090E00DD11092BC021092BB0269E72E
:1005100072E086EB92E0EFD4892B61F460E08CE02E
:1005200012D264EF71E080E090E0FAD01092BC0249
:100530001092BB026DE772E086EB92E0DCD4892B6F
:1005400061F461E08BE0FFD164EF71E080E090E066
:10055000E7D01092BC021092BB0261E872E086EB19
:1005600092E0C9D4892B61F460E08BE0ECD164EFB8
:1005700071E080E090E0D4D01092BC021092BB02F7
:1005800065E872E086EB92E0B6D4892B61F461E015
:100590008AE0D9D164EF71E080E090E0C1D01092A0
:1005A000BC021092BB0269E872E086EB92E0A3D431
:1005B000892B61F460E08AE0C6D164EF71E080E0ED
:1005C00090E0AED01092BC021092BB026DE872E0D7
:1005D00086EB92E090D4892BA9F461E08DE0B3D151
:1005E00061E08CE0B0D161E08BE0ADD161E08AE008
:1005F000AAD164EF71E080E090E092D01092BC024A
:100600001092BB0261E972E086EB92E074D4892B10
:10061000A9F460E08DE097D160E08CE094D160E0D7
:100620008BE091D160E08AE08ED164EF71E080E0F0
:1006300090E076D01092BC021092BB02DF91CF9175
:100640001F910F9108951F920F920FB60F921124D0
:100650002F933F938F939F93AF93BF938091D50236
:100660009091D602A091D702B091D8023091D402D5
:1006700023E0230F2D3720F40196A11DB11D05C0E5
:1006800026E8230F0296A11DB11D2093D40280936A
:10069000D5029093D602A093D702B093D80280914E
:1006A000D9029091DA02A091DB02B091DC020196AE
:1006B000A11DB11D8093D9029093DA02A093DB02B1
:1006C000B093DC02BF91AF919F918F913F912F9199
:1006D0000F900FBE0F901F9018953FB7F894809120
:1006E000D9029091DA02A091DB02B091DC0226B52A
:1006F000A89B05C02F3F19F00196A11DB11D3FBF5A
:100700006627782F892F9A2F620F711D811D911DE9
:1007100042E0660F771F881F991F4A95D1F7089509
:10072000CF92DF92EF92FF92CF93DF936B017C0128
:10073000D4DFEB01C114D104E104F10479F0AED3AC
:10074000CCDF6C1B7D0B683E7340A0F381E0C81AC0
:10075000D108E108F108C851DC4FECCFDF91CF910F
:10076000FF90EF90DF90CF900895789484B58260E9
:1007700084BD84B5816084BD85B5826085BD85B545
:10078000816085BDEEE6F0E0808181608083E1E8F4
:10079000F0E010828081826080838081816080832C
:1007A000E0E8F0E0808181608083E1EBF0E080812F
:1007B00084608083E0EBF0E0808181608083E1E908
:1007C000F0E0808182608083808181608083E0E9C5
:1007D000F0E0808181608083E1EAF0E080818260E6
:1007E0008083808181608083E0EAF0E080818160A5
:1007F0008083E1E2F1E0808182608083808181609A
:100800008083E0E2F1E0808181608083EAE7F0E0CC
:100810008081846080838081826080838081816028
:1008200080838081806880831092C100089590E069
:10083000FC013197E231F10508F04BC0EE58FF4F53
:1008400050C3809180008F7703C0809180008F7D9E
:1008500080938000089580918000877FF9CF84B5D0
:100860008F7702C084B58F7D84BD08958091B000DC
:100870008F7703C08091B0008F7D8093B000089582
:10088000809190008F7707C0809190008F7D03C08A
:1008900080919000877F8093900008958091A000C0
:1008A0008F7707C08091A0008F7D03C08091A0004A
:1008B000877F8093A0000895809120018F7707C0E3
:1008C000809120018F7D03C080912001877F8093DC
:1008D00020010895CF93DF9390E0FC01E25BFE4F8F
:1008E0002491FC01EC56FE4F8491882349F190E05D
:1008F000880F991FFC01EC50FE4FA591B4918652D0
:100900009E4FFC01C591D4919FB7611108C0F89426
:100910008C91209582238C93888182230AC0623037
:1009200051F4F8948C91322F309583238C938881E5
:10093000822B888304C0F8948C91822B8C939FBF68
:10094000DF91CF9108950F931F93CF93DF931F9261
:10095000CDB7DEB7282F30E0F901E85FFE4F849174
:10096000F901E25BFE4F1491F901EC56FE4F049140
:100970000023C1F0882319F0698359DF6981E02FD2
:10098000F0E0EE0FFF1FE652FE4FA591B4919FB726
:10099000F8948C91611103C01095812301C0812BC3
:1009A0008C939FBF0F90DF91CF911F910F9108956E
:1009B000FC01818D228D90E0805C9F4F821B91090C
:1009C0008F7399270895FC01918D828D981731F0CE
:1009D000828DE80FF11D858D90E008958FEF9FEFD8
:1009E0000895FC01918D828D981761F0828DDF0151
:1009F000A80FB11D5D968C91928D9F5F9F73928F12
:100A000090E008958FEF9FEF089586EA96E0892B96
:100A100039F080E090E0892B19F098D1811125C040
:100A200080E090E0892B41F080E090E0892B21F07C
:100A30000E94000081111CC080E090E0892B41F0F1
:100A400080E090E0892B21F00E940000811113C00A
:100A500080E090E0892BA1F080E090E0892B81F08C
:100A60000E94000081110AC008950E940000D8CFA2
:100A70000E940000E1CF0E940000EACF0C94000029
:100A80000895FC01848DDF01A80FB11DA35ABF4F4B
:100A90002C91848D90E001968F739927848FA6897D
:100AA000B7892C93A089B1898C9180648C93938DA4
:100AB000848D981306C00288F389E02D80818F7D94
:100AC00080830895CF93DF93EC01888D8823C1F054
:100AD000EA89FB89808185FD05C0A889B9898C9147
:100AE00086FD0EC00FB607FCF5CF808185FFF2CFE3
:100AF000A889B9898C9185FFEDCFCE01C2DFE8CFFF
:100B0000DF91CF910895CF92DF92FF920F931F93C1
:100B1000CF93DF931F92CDB7DEB76C0181E0D60192
:100B200058968C9358975B969C915B975C968C91AA
:100B30005C97981307C05096ED91FC915197808176
:100B400085FD2DC0F601038D10E00F5F1F4F0F7361
:100B50001127F02EF601848DF81210C00FB607FC95
:100B6000F9CFD6015096ED91FC915197808185FF88
:100B7000F1CFC601698385DF6981ECCF838DE80FF2
:100B8000F11DE35AFF4F6083D6015B960C935B9790
:100B90005296ED91FC915397808180620CC0D601F2
:100BA0005696ED91FC91579760835096ED91FC918C
:100BB000519780818064808381E090E00F90DF9185
:100BC000CF911F910F91FF90DF90CF900895BF922A
:100BD000CF92DF92EF92FF92CF93DF93EC016A0105
:100BE0007B01B22EE889F98982E08083411581EE8C
:100BF00058076105710599F060E079E08DE390E0B8
:100C0000A70196014CD1215031094109510956954E
:100C1000479537952795211580E1380790F0E889A9
:100C2000F989108260E874E88EE190E0A7019601EE
:100C300036D12150310941095109569547953795CB
:100C40002795EC85FD853083EE85FF852083188E02
:100C5000EC89FD89B082EA89FB898081806180838B
:100C6000EA89FB89808188608083EA89FB898081A9
:100C700080688083EA89FB8980818F7D8083DF9112
:100C8000CF91FF90EF90DF90CF90BF9008951F928B
:100C90000F920FB60F9211240BB60F922F938F93D2
:100CA0009F93EF93FF93E091ED02F091EE0280812C
:100CB000E091F302F091F40282FD12C090818091E4
:100CC000F6028F5F8F732091F702821751F0E09147
:100CD000F602F0E0E352FD4F958F8093F60201C0DB
:100CE0008081FF91EF919F918F912F910F900BBE7B
:100CF0000F900FBE0F901F9018951F920F920FB676
:100D00000F9211240BB60F922F933F934F935F9343
:100D10006F937F938F939F93AF93BF93EF93FF93C3
:100D20008DED92E0AEDEFF91EF91BF91AF919F917B
:100D30008F917F916F915F914F913F912F910F9084
:100D40000BBE0F900FBE0F901F9018958DED92E087
:100D50002FDE21E0892B09F420E0822F08951092E4
:100D6000E0021092DF0288EE93E0A0E0B0E0809312
:100D7000E1029093E202A093E302B093E40289E9D6
:100D800092E09093DE028093DD0285EC90E09093F8
:100D9000EA028093E90284EC90E09093EC02809365
:100DA000EB0280EC90E09093EE028093ED0281ECF8
:100DB00090E09093F0028093EF0282EC90E09093A9
:100DC000F2028093F10286EC90E09093F40280931B
:100DD000F3021092F6021092F7021092F8021092AB
:100DE000F9020895CF92DF92EF92FF920F931F9333
:100DF000CF93DF937C016A01EB0100E010E00C155A
:100E00001D0571F06991D701ED91FC910190F08180
:100E1000E02DC7011995892B19F00F5F1F4FEFCFF8
:100E2000C801DF91CF911F910F91FF90EF90DF905C
:100E3000CF9008956115710581F0DB010D900020C0
:100E4000E9F7AD0141505109461B570BDC01ED910B
:100E5000FC910280F381E02D199480E090E00895E8
:100E600065EA72E0E7CF0F931F93CF93DF93EC0116
:100E7000E1DF8C01CE01F4DF800F911FDF91CF9174
:100E80001F910F910895089570DCFDDFF0D9C5E042
:100E9000D5E0B9DA2097E9F3B8DDFBCF0895A1E2F8
:100EA0001A2EAA1BBB1BFD010DC0AA1FBB1FEE1FE4
:100EB000FF1FA217B307E407F50720F0A21BB30B2F
:100EC000E40BF50B661F771F881F991F1A9469F7AB
:100ED00060957095809590959B01AC01BD01CF0107
:100EE0000895EE0FFF1F0590F491E02D19940790DF
:100EF000F691E02D1994FB01DC018D910190801990
:0C0F00000110D9F3990B0895F894FFCF6D
:100F0C004154003044304100415445300041542B91
:100F1C00474D520041542B43574D4F44453D3200F1
:100F2C0041542B43494653520041542B4349504D95
:100F3C0055583D310041542B434950534552564569
:100F4C00523D312C38300041542B43495053454EBF
:100F5C00443D302C32310057454C434F4D453A20DF
:100F6C005769466920436F6E6E656374004F4E314E
:100F7C00004F4631004F4E32004F4632004F4E3339
:100F8C00004F4633004F4E34004F4634004F4E3521
:100F9C00004F463500000000008305F206D804F12E
:100FAC0004E30462050D0A006E616E00696E660052
:060FBC006F7666002E00B6
:00000001FF
